:100000000C946C000C9494000C9494000C94940048
:100010000C9494000C9494000C9494000C94940010
:100020000C9494000C9494000C9494000C94940000
:100030000C9494000C9494000C9494000C949400F0
:100040000C94A1170C9494000C94951A0C94C71A54
:100050000C9494000C9494000C9494000C949400D0
:100060000C9494000C94940000000008000201001D
:100070000003040700000000000000000102040863
:100080001020408001020408102001020408102002
:10009000040404040404040402020202020203032E
:1000A00003030303000000002300260029000000D2
:1000B0000000250028002B0000000000240027007D
:1000C0002A003301EB01EC06970A780C830CE30E4F
:1000D000D215F71AA51B680111241FBECFEFD8E077
:1000E000DEBFCDBF14E0A0E0B1E0EAE0F8E402C07A
:1000F00005900D92A83BB107D9F726E0A8EBB4E034
:1001000001C01D92AF36B207E1F710E0C6EDD0E0B6
:1001100004C02297FE010E947B1EC23CD107C9F792
:100120000E94B51B0C94F8230C94000060E082E060
:100130000E94B81826E040E855E260E070E088ECE4
:1001400095E00E94331A6AE171E088EC95E00E9424
:100150002F1C8EEB94E00E948D1568E271E088EC14
:1001600095E00C942F1CCF92DF92EF92FF920E94A9
:10017000EB176B017C018091FF0490910005A09129
:100180000105B0910205A7019601281B390B4A0B06
:100190005B0BDA01C90188389341A105B10508F468
:1001A0005DC082E00E94271990930B0180930A01A1
:1001B000892B19F460E471E002C06BE471E088EC13
:1001C00095E00E94101CC092FF04D0920005E092BE
:1001D0000105F092020569E571E088EC95E00E9466
:1001E000101C6EE671E08EEB94E00E94CE156DEC73
:1001F00073E088EB94E00E94CF1D80910A019091FA
:100200000B0128EB34E0892B19F44FE751E002C0D1
:100210004EE052E060EB71E08EEB94E00E949417A8
:100220007C0160E472E088EC95E00E94101C4AE0DA
:1002300050E0B70188EC95E00E94DA1C6AE572E0B4
:1002400088EC95E00E94101C68EB74E088EC95E067
:10025000FF90EF90DF90CF900C941D1CFF90EF90DB
:10026000DF90CF9008950F9300E020E040E060E041
:1002700083E095E00E947E1B02E021E048EA60EC0A
:1002800089EF94E00E947E1B01E021E048EA60ECE7
:1002900083EF94E00E947E1B21E048EA60EC8DEE43
:1002A00094E00E947E1B00E02FEF4FEF6FEF87EE90
:1002B00094E00E947E1B66E772E08EEB94E00E9461
:1002C0005D156DEC73E088EB94E00F910C94B91D13
:1002D00088EB94E00C944B1DCF93CFB7F8948091AA
:1002E0000C05811127C0EAE9F0E08491E6E8F0E02E
:1002F0009491E82FF0E0EE0FFF1FE854FF4FA59117
:10030000B4918C91892321F461E08AE00E94F11874
:1003100061E08AE00E94B8188CB580618CBD8CB514
:1003200080648CBD61E08DE00E94B81861E08BE0D4
:100330000E94B81880910C058F5F80930C05CFBF89
:10034000CF9108950E9624E1FC0111922A95E9F7C8
:100350000895CF93DF93EC01625F7F4F0E948A1B69
:10036000CE01DF91CF910895CF93DF93EC016E5EC4
:100370007F4F0E948A1BCE01DF91CF910895CF93CA
:10038000DF93EC016A5E7F4F0E948A1BCE01DF91F2
:10039000CF910895CF93DF93EC01625E7F4F0E946F
:1003A0008A1BCE01DF91CF91089580E3FB0180830A
:1003B0003296842F82958F7090E1899F4019112485
:1003C0004A3014F4405D01C0495C4293882311F027
:1003D000482FEFCF08950F9300E020E040E060E069
:1003E0008DE095E00E947E1B0F9108956F927F92A1
:1003F0008F929F92AF92BF92CF92DF92EF92FF9235
:100400000F931F93CF93DF93CDB7DEB7AC970FB6A3
:10041000F894DEBF0FBECDBF7C01862EB42EA52E74
:1004200020E2922ECE0101966C01FC01292D119241
:100430002A95E9F70FEF2FEF4FEF6FEF86960E94A7
:100440007E1B8AEA94E09AA389A389A59AA5ABA505
:10045000BCA58BA39CA3ADA3BEA387010D5B1F4FBF
:1004600043E450E0BE016F5D7F4FC8010E94D90C8C
:10047000019609F4BFC081E089838A8386E0782EE3
:100480007B821C82F70164817581868197810E943D
:10049000671E6D837E838F839887A986BA8680E8DE
:1004A00090E09C878B874CE150E0B601C8010E9428
:1004B000E50CF601292D11922A95E9F7570188E0FC
:1004C000A80EB11CF501D60101900D927A94E1F7C6
:1004D00040E150E0B601C8010E94E50CF60111921E
:1004E0009A94E9F796E0692E712C40E250E0B6014B
:1004F000C8010E94E50CF1E06F1A7108B1F783E6BC
:10050000898392E89A8393E59B838C8385E38D832B
:1005100081E08E838F829DE3988797E099878A8711
:1005200086E0F501DE011B9601900D928A95E1F7B8
:100530008CE0898B8A8B6AE872E0CE0143960E9438
:100540001021F7014385BE01675E7F4FC7010E94FE
:10055000D501F7014485BE01655E7F4FC7010E944A
:10056000D501F7014585BE01635E7F4FC7010E943B
:10057000D5014EE150E0B601C8010E94E50CF3E060
:100580008F121EC082E3898384E08A83F7019685F7
:100590009B8397859C8390899D8391899E8396E315
:1005A0009F838887828D8987838D8A87848D8B87B7
:1005B000858D8C874CE050E0B601C8010E94E50CA7
:1005C00087E3898386E08A8391E09B8393E09C8321
:1005D0008D838FE08E838AE38F838BE388878FEF11
:1005E000898749E050E0B601C8010E94E50CC801C6
:1005F0000E94E10CAC960FB6F894DEBF0FBECDBFE3
:10060000DF91CF911F910F91FF90EF90DF90CF90EE
:10061000BF90AF909F908F907F906F9008952F9292
:100620003F924F925F926F927F928F929F92AF9282
:10063000BF92CF92DF92EF92FF920F931F93CF93CF
:10064000DF93CDB7DEB7E3970FB6F894DEBF0FBEEA
:10065000CDBF7C012A013B0169010E94EB174B01D0
:100660005C0187010D5B1F4FC8010E94850D1816A4
:10067000190694F00E94EB17681979098A099B09F9
:100680004616570668067906F0F062E370E080E0EF
:1006900090E00E941A18E8CF42E250E0BE016F5F7E
:1006A0007F4FC8010E94220D8981823031F4F80108
:1006B000848995898334910541F019A6C8010E9467
:1006C000C30C89A566C18FEF64C16D817E818F8166
:1006D00098850E94671E4B015C01F601608371835F
:1006E0008283938346E050E0B701685F7F4FCE017D
:1006F0004D960E94FA20892B99F4F701808191810F
:10070000A281B38188169906AA06BB0648F08481A7
:100710009581A681B78188159905AA05BB0528F49E
:10072000C8010E94C30C80E034C189899A89AB89D1
:10073000BC89F70186879787A08BB18B3EECC32ECF
:10074000D12CC8010E94F90CF1E0CF1AD108C9F7E9
:1007500019A6C70182969BA78AA7F701B696FDA79F
:10076000ECA708969FA78EA73C976F01899699AB37
:1007700088AB3897FBABEAAB5701F6E1AF0EB11C83
:1007800047018EE1880E911CC8010E94A90C181621
:1007900019060CF093CFC8010E94F90C8333910520
:1007A00009F4CDC0F4F481309105B9F11CF4892B22
:1007B00059F3DFC083309105C1F1069709F0D9C024
:1007C000C8010E94F90C3C0144E050E0B401C801AA
:1007D0000E94220D212C312C7724F4E06F1A71082D
:1007E0003FC08A33910509F47EC03CF485339105FE
:1007F00061F0C69709F43FC0BCC08B33910509F482
:1008000088C08F3F910501F2B4C0C8010E94F90C65
:10081000C8010E94F90C89A7B7CFC8010E94F90C42
:1008200044E050E06AA97BA93AC0C8010E94F90CD3
:100830003C0144E050E0B501C8010E94220D212C8A
:10084000312C772494E0691A7108261437040CF0CF
:100850009BCFC8010E94F90CEFEF2E1A3E0AF5CF8C
:10086000261437040CF090CFC8010E94F90C8FEFCA
:10087000281A380AF5CFC8010E94F90C782EF70122
:10088000828D811110C0838D81110DC0848D8111E5
:100890000AC0858D811107C044E050E0B601C8014F
:1008A0000E94220D71CFE8A9F9A9208031804280F1
:1008B0005380B601CE0183960E948A1B8DA19EA112
:1008C000AFA1B8A582159305A405B50529F3212C80
:1008D000312C721409F458CFC8010E94F90CFFEFB3
:1008E0002F1A3F0AF6CFC8010E94F90C44E050E0ED
:1008F0006CA57DA5C8010E94220DF70166A177A114
:1009000080A591A50E94671E66A377A380A791A7E3
:100910003BCFC8010E94F90C44E050E06EA57FA5D2
:10092000C8010E94220DF70162A573A584A595A5B3
:100930000E94671E62A773A784A795A725CFC80149
:100940000E94F90C44E050E06AA57BA5C8010E9412
:10095000220DF70162A173A184A195A10E94671ED7
:1009600062A373A384A395A366A777A780AB91AB7B
:100970000BCFC8010E94F90C382E612C712C361453
:1009800009F402CFC8010E94F90CFFEF6F1A7F0A29
:10099000F6CFE3960FB6F894DEBF0FBECDBFDF9162
:1009A000CF911F910F91FF90EF90DF90CF90BF906C
:1009B000AF909F908F907F906F905F904F903F90FF
:1009C0002F9008952F923F924F925F926F927F9255
:1009D0008F929F92AF92BF92CF92DF92EF92FF924F
:1009E0000F931F93CF93DF9300D000D01F92CDB70A
:1009F000DEB78C0120ED37E040E050E061E070E0D0
:100A000080E090E00E942A1DD80114966D937D939A
:100A10008D939C931797F8016083718382839383EE
:100A20004801F3E48F0E911CC4010E94C40C64E4DD
:100A300070E0C4010E94580D882309F434C10E945B
:100A4000EB176B017C01212C312C1D82580182E4B3
:100A5000A80EB11C48EE442E43E0542E612C712C9C
:100A6000F5018081833009F405C181111FC0F801AF
:100A700084819581A681B7810196A11DB11D8483D2
:100A80009583A683B7830E94EB176C197D098E09A5
:100A90009F09A30192010E94261EA90161E0C801DD
:100AA0000E94F60181E0D5018C93C6C08430F9F430
:100AB000F80184819581A681B7810196A11DB11DA0
:100AC00084839583A683B7830E94EB176C197D09F5
:100AD0008E099F09A30192010E94261EA90163E0CD
:100AE000C8010E94F601E2E0D501EC93A5C0813077
:100AF00069F5D801DA964D915D916D917C91DD9704
:100B00009E012F5F3F4FC8010E940F038D838230EB
:100B100009F092C089819A81AB81BC81F8018483FC
:100B20009583A683B7830E94EB176C197D098E0904
:100B30009F09A30192010E94261EA90163E0C8013A
:100B40000E94F601ED81D501EC937CC0823009F062
:100B500073C0D801DA964D915D916D917C91DD97CE
:100B60009E012F5F3F4FC8010E940F038D83853088
:100B700009F05CC083E0F5018083F80182A193A1B4
:100B8000A4A1B5A1892B8A2B8B2B41F484E893E097
:100B9000A0E0B0E082A393A3A4A3B5A3F80186A12B
:100BA00097A1A0A5B1A5892B8A2B8B2B61F482A1DB
:100BB00093A1A4A1B5A1B695A7959795879586A36E
:100BC00097A3A0A7B1A7F80182A593A5A4A5B5A551
:100BD000892B8A2B8B2BA9F482A193A1A4A1B5A167
:100BE000AC01BD0123E076956795579547952A9509
:100BF000D1F7841B950BA60BB70B82A793A7A4A7CD
:100C0000B5A7F80186A197A1A0A5B1A586A797A72A
:100C1000A0ABB1AB82A593A5A4A5B5A582AB93ABC0
:100C2000A4ABB5AB22242394312C0CC0FD81F6304B
:100C300019F4D5011C9206C0BD81BF3F19F4F5011E
:100C400010821D82F1E02F16310409F409CF0E94B1
:100C5000EB176C197D098E099F09D801D6962D9145
:100C60003D914D915C91D997261737074807590751
:100C700008F0F6CEC4010E94C40CF801848195816D
:100C8000A681B7810196A11DB11D84839583A6839A
:100C9000B7830E94EB17F801FE966083718382830D
:100CA0009383C10102C080E090E00F900F900F90FD
:100CB0000F900F90DF91CF911F910F91FF90EF90C8
:100CC000DF90CF90BF90AF909F908F907F906F906C
:100CD0005F904F903F902F900895CF92DF92EF92C8
:100CE000FF920F931F93CF93DF93EC016B011AA236
:100CF0001BA21CA21DA21EA21FA218A619A61AA6FC
:100D00001BA61CA61DA62EAB3FAB48AF59AFEAAE43
:100D1000FBAE0CAF1DAF8C01085F1F4F86E0F801E2
:100D200011928A95E9F7CE010E94A20186E0F601B0
:100D3000D80101900D928A95E1F7FE01EE5BFF4F1D
:100D40001082CE01DF91CF911F910F91FF90EF9014
:100D5000DF90CF900C94E204FB01428153816481C7
:100D60007581FC01428353836483758317821682E5
:100D70000895FB0120E080E090E06AE031913323A8
:100D800009F170ED730F7A3080F4DC016A9FC001C5
:100D90006B9F900D1124C097830F911D37FD9A957D
:100DA0008F3F910559F350F314C03E3291F4233034
:100DB00081F0DA01A20FB11D12968C932F5F80E0B3
:100DC00090E0DCCF233029F4FA01858381E090E0C4
:100DD000089580E090E008950F9300E020E040E067
:100DE00060E083E195E00E947E1B0F910895AF9231
:100DF000BF92CF92DF92EF92FF920F931F93CF9308
:100E0000DF9300D000D01F92CDB7DEB78C017B01FD
:100E10000E94EB17F801778366837627672776278A
:100E20007A836983085F1F4F42E050E0BE016F5F25
:100E30007F4FC8010E94E50C81E090E09C838B838A
:100E400042E050E0BE016D5F7F4FC8010E94E50C9B
:100E500080E091E09C838B8342E050E0BE016D5FB7
:100E60007F4FC8010E94E50C1C821B8242E050E0CB
:100E7000BE016D5F7F4FC8010E94E50C42E050E06B
:100E8000BE016D5F7F4FC8010E94E50C42E050E05B
:100E9000BE016D5F7F4FC8010E94E50C6701F6013E
:100EA0008081882311F1F7016F018191811115C0B3
:100EB0005601AE18BF081A141B0494F4AD8241E029
:100EC00050E0BE016B5F7F4FC8010E94E50CA50199
:100ED000B701C8010E94E50C03C08E3229F7E8CFA4
:100EE0007601FFEFEF1AFF0ADACF1D8241E050E0F2
:100EF000BE016B5F7F4FC8010E94E50CE12CFF240F
:100F0000F394FC82EB8242E050E0BE016D5F7F4FC4
:100F1000C8010E94E50CFC82EB8242E050E0BE0179
:100F20006D5F7F4FC8010E94E50C81E090E00F905B
:100F30000F900F900F900F90DF91CF911F910F9115
:100F4000FF90EF90DF90CF90BF90AF9008954F92B9
:100F50005F926F927F928F929F92AF92BF92CF9249
:100F6000DF92EF92FF920F931F93CF93DF93CDB752
:100F7000DEB763970FB6F894DEBF0FBECDBF7C011E
:100F80005B016A010E94EB172B013C018701085F9E
:100F90001F4F4501A12CB12CC8010E94850D1816C8
:100FA000190694F00E94EB176419750986099709D0
:100FB00086169706A806B906D0F062E370E080E0D6
:100FC00090E00E941A18E8CFF701428153816481B2
:100FD0007581808D918DA28DB38D481759076A0751
:100FE0007B0741F4848D958DC59721F406C08FEF62
:100FF0009FEFFAC08EEF9FEFF7C0C8010E94A90CC7
:101000000C97ECF04CE050E0BE016F5F7F4FC801E1
:101010000E94220D6C818B810E94461D9A8B898BC8
:10102000F701E680F7806A8189810E94461DE816F3
:10103000F90641F489899A8997FF04C009C08DEFA8
:101040009FEFD2C0C8010E94C30C8CEF9FEFCCC0B1
:101050008F709270892B31F0C8010E94C30C8BEF06
:101060009FEFC2C068858F810E94461D5C0100977A
:1010700019F0E12CF12C23C0C8010E94C30C8AEFA7
:101080009FEFB2C041E050E0BE01635F7F4FC801F7
:101090000E94220D8D8581111AC08D858111F2CF9C
:1010A000C8010E94F90CC8010E94F90CC8010E94F5
:1010B000F90CC8010E94F90CFFEFEF1AFF0A6E81CC
:1010C0008D810E94461DE816F906E0F20AC08D8562
:1010D0009FEF980F9D87882301F3C8010E94F90CA8
:1010E000F6CFE12CF12C41E050E0BE016D5E7F4F68
:1010F000C8010E94220D8B89982F907C61F488236F
:1011000071F08B899FEF980F9B8B882341F0C8016A
:101110000E94F90CF6CFC8010E94F90C1B8A8B893A
:101120008111E1CF42E050E0BE01615F7F4FC80115
:101130000E94220D42E050E0BE01635F7F4FC80174
:101140000E94220DC8010E94F90CC8010E94F90CEE
:10115000C8010E94F90CC8010E94F90C42E050E05D
:10116000BE016F5E7F4FC8010E94220D8F85988956
:101170008115914029F48D859E858115914019F046
:10118000812C912C16C089899A898115944031F05F
:10119000C8010E94C30C87EF9FEF26C0B6016E5FA7
:1011A0007F4F44E050E0C8010E94220D81E090E0B2
:1011B0001BC089899A8998278927982788169906B4
:1011C00038F4C8010E94F90C2FEF821A920AF1CF6D
:1011D0008FEFE81AF80AEA14FB0409F084CFC8017B
:1011E0000E94C30C86EF9FEF63960FB6F894DEBFA4
:1011F0000FBECDBFDF91CF911F910F91FF90EF9068
:10120000DF90CF90BF90AF909F908F907F906F9026
:101210005F904F9008958F929F92AF92BF92CF921E
:10122000DF92EF92FF920F931F93CF93DF9300D043
:1012300000D000D0CDB7DEB78C015B016A010E94FF
:10124000B9064C01009709F05DC0F8014281538155
:10125000648175818091150590911605A0911705FF
:10126000B0911805481759076A077B0709F44EC063
:101270000E94EB177801F8E0EF0EF11C6F707727F2
:101280007C5FC7010E94580D813009F043C08AEA93
:1012900094E09A838983F80182819381A481B58146
:1012A0008B839C83AD83BE8345E350E0BE016F5FBB
:1012B0007F4FC7010E94D90C892B19F4812C912CE6
:1012C0001DC0B501C8010E94F706892BB9F3C701FB
:1012D0000E94E10C892B91F333E0A32EB12CA601DF
:1012E00068E873E1C8010E94A7074C01F1E0AF1A5A
:1012F000B10821F08F3F2FEF920789F3C7010E94B9
:10130000C40C08C088248394912C04C09EEF892EBD
:1013100099249A94C40126960FB6F894DEBF0FBEA6
:10132000CDBFDF91CF911F910F91FF90EF90DF9094
:10133000CF90BF90AF909F908F90089520910B0514
:10134000222399F03FB7F89420910B05213059F4EE
:101350002DB3209309054DB320910A052095242330
:101360002DBB3FBF02C0309309058CBD9DBD0895C4
:1013700080910B05882361F09FB7F89420910B05AD
:1013800080910905213019F48DBB9FBF08958FBF4F
:10139000089544E050E0BC0181E090E00C945413C7
:1013A00044E050E0BC0185E090E00C94541344E02C
:1013B00050E0BC018FE090E00C9454132F923F92C8
:1013C0004F925F926F927F928F929F92AF92BF9255
:1013D000CF92DF92EF92FF920F931F93CF93DF9301
:1013E00000D000D000D0CDB7DEB76C011B012901C1
:1013F0003A014701580180917F05811107C08CE5B2
:1014000095E00E946B0E81E080937F0589E195E075
:10141000F6019783868389EA95E00E94EC1280E5C5
:1014200090E00E949E0946E050E0B10189E090E022
:101430000E94541300E020E040E060E0CE010196FD
:101440000E947E1BCE0103960E94D7090E94B80914
:1014500085017401A3019201B101F6018681978192
:101460000E946D065C0181309105B9F580E590E040
:101470000E949E09F60166817781CE0101960E9445
:10148000A901CE0103960E94D709F60166817781F2
:10149000CE0101960E94BF01CE0103960E94C909A8
:1014A000F60166817781CE0101960E94B401CE01DA
:1014B00003960E94D0090E94B809F60166817781DF
:1014C000CE0101960E94CA014B815C816D817E81B3
:1014D000F6014283538364837583C50126960FB654
:1014E000F894DEBF0FBECDBFDF91CF911F910F915A
:1014F000FF90EF90DF90CF90BF90AF909F908F9034
:101500007F906F905F904F903F902F9008952AEAC0
:1015100034E0FC0131832083FB01428153816481EB
:101520007581FC01428353836483758308950F930F
:1015300000E020E040E060E08FE895E00E947E1B44
:1015400087E795E00F910C94741B81E0862708953E
:10155000862F0895DC01ED91FC91048CF58DE02D32
:10156000099591E089270895CF93DF931F92CDB716
:10157000DEB76983DC01ED91FC910280F381E02DFF
:1015800041E050E0BE016F5F7F4F09950F90DF9102
:10159000CF91089521E0FC018485843009F420E096
:1015A000822F0895FC019485FB018485981303C064
:1015B00081E0943009F480E008950F931F93CF9356
:1015C000DF93EC018A018C85843021F00E948E101B
:1015D000892B39F481E090E09B838A8380E090E05E
:1015E00001C0C801DF91CF911F910F910895FC01B7
:1015F0008485843011F00C94851180E090E008958A
:10160000CF93DF931F92CDB7DEB741E050E0BE012C
:101610006F5F7F4FFC0184850E9425111816190603
:101620001CF4898190E002C08FEF9FEF0F90DF9153
:10163000CF910895FC0184850C9425110F931F937D
:10164000CF93DF931F92CDB7DEB78C01DC01ED9114
:10165000FC910480F581E02D0995892B51F0BE01A4
:101660006F5F7F4FF80184850E94B011898190E0FF
:1016700002C08FEF9FEF0F90DF91CF911F910F91DD
:101680000895FC0184850C94DF11CF92DF92EF92D4
:10169000FF920F931F93CF93DF93CDB7DEB7AF9732
:1016A0000FB6F894DEBF0FBECDBF7C018B016A017F
:1016B000CE0101960E94741BCE0109960E946B0E0A
:1016C000CE018A960E94741B67E775E0CE0184966E
:1016D0000E94870ABE016C5D7F4FCE0101960E9479
:1016E000AC06AE01465D5F4FB801CE0101960E9487
:1016F0000B0981309105C1F4D701ED91FC9104846F
:10170000F585E02D8AEA94E09DA38CA30CA51DA588
:101710002EA53FA50EA31FA328A739A7A601BE018A
:101720006C5D7F4FC7010995AF960FB6F894DEBF89
:101730000FBECDBFDF91CF911F910F91FF90EF9022
:10174000DF90CF900895FC011382128248EE53E09F
:1017500060E070E0448355836683778385E992E097
:101760009183808384E084870895FC01848584309C
:1017700011F00C946A0F80E00895DF92EF92FF92CF
:101780000F931F93CF93DF93EC017B018A018C852C
:10179000843009F045C0D12C8D2D0E946A0F811133
:1017A00002C0DC8607C08B7F8831D9F3D39484E0F4
:1017B000D812F2CF8C85843099F120910C013091B0
:1017C0000D012F5F3F4F11F420E030EC30930D01FD
:1017D00020930C0140910C0150910D0120E061E03B
:1017E0000E94BC0FB7016E5F7F4FA8018C850E94DD
:1017F0001010811103C084E08C8712C0CE010E94BA
:10180000B50B873151F061E070E080E090E00E941C
:101810001A18CE010E94B50BECCF81E090E002C017
:1018200080E090E0DF91CF911F910F91FF90EF90BA
:10183000DF900895CF92DF92EF92FF92CF93DF93E4
:10184000EC018C85843049F10E9468100E94EB17EE
:101850006B017C01CE010E94B50B8823A1F061E0F1
:1018600070E080E090E00E941A180E94EB176C195B
:101870007D098E099F09683E73408105910550F3EB
:101880008C850E94920FEC85F0E0EE0FFF1FE95768
:10189000FA4F1182108284E08C87DF91CF91FF9004
:1018A000EF90DF90CF900895CF93DF93EC018C857C
:1018B0008430D1F0CE010E94B50B8431A9F0882389
:1018C00099F0883189F08C3169F4E881F9810480DC
:1018D000F581E02DCE01099521E0892B09F420E066
:1018E000822F03C081E001C080E0DF91CF91089595
:1018F0000F9300E020E040E060E085E995E00E9481
:101900007E1B0F9108950F9300E020E040E060E01F
:101910008BE995E00E947E1B0F910895DC01ED910B
:10192000FC91008CF18DE02D09942AEA34E0FC0151
:1019300031832083FB014089518962897389FC01CD
:1019400042835383648375830895FC018489958958
:101950000895FC01818D928D0895CF93DF931F929E
:10196000CDB7DEB76983DC01ED91FC910280F38194
:10197000E02D41E050E0BE016F5F7F4F09950F9071
:10198000DF91CF9108950895CF93DF93EC01888D77
:10199000843061F00E94920FE88DF0E0EE0FFF1F9F
:1019A000E957FA4F1182108284E0888FDF91CF913E
:1019B0000895FC01178A168A6E5F7F4F808D0C9404
:1019C0002712FC01808D0C946D12CF93DF93EC01F4
:1019D0009A018E899F89AB01BC01888D0E94E0111C
:1019E0002E893F89280F391F3F8B2E8BDF91CF9196
:1019F00008950F931F93CF93DF931F92CDB7DEB758
:101A00008C01FC01818D928D892B59F041E050E0D1
:101A1000BE016F5F7F4F808D0E9425111816190639
:101A20001CF08FEF9FEF08C0F801818D928D019718
:101A3000928F818F898190E00F90DF91CF911F91DC
:101A40000F910895CF93DF93EC01898D9A8D0097C4
:101A500019F48FEF9FEF10C04817590708F0AC0139
:101A6000888D0E942511181619069CF7298D3A8D2C
:101A7000281B390B3A8F298FDF91CF910895CF938F
:101A8000DF931F92CDB7DEB7FC01218D328D232B62
:101A900049F0BE016F5F7F4F808D0E94B011898138
:101AA00090E002C08FEF9FEF0F90DF91CF910895EC
:101AB000FF920F931F93CF93DF93EC018B01888DDF
:101AC0008430E1F4F12C8F2D0E946A0F811102C045
:101AD000F88E06C08831E1F3F39484E0F812F3CF76
:101AE000888D843059F01D870C871A8E198E20E05E
:101AF000A80162E00E94BC0F81E001C080E0DF919C
:101B0000CF911F910F91FF9008950F931F93CF9343
:101B1000DF93CDB7DEB728970FB6F894DEBF0FBEC0
:101B2000CDBF8C01F801818D928D892B49F0D801B0
:101B3000ED91FC910680F781E02DC8010995F2CF67
:101B4000808D0E9485111816190644F548E050E072
:101B5000BE016F5F7F4FD80158968C910E9425116E
:101B600018161906ECF4BE016F5F7F4FC8010E9680
:101B70000E949A1B8D8190E0982F88272E81820FDA
:101B8000911DF801958B848B8F8190E0982F882789
:101B90002885820F911D928F818F02C080E090E096
:101BA00028960FB6F894DEBF0FBECDBFDF91CF9160
:101BB0001F910F9108958F929F92AF92BF92CF92F3
:101BC000DF92EF92FF920F931F93CF93DF9300D09A
:101BD00000D000D0CDB7DEB78C017B014A01FC01FB
:101BE000808D843009F063C073E0A72E74E0B72EB7
:101BF000C12CD12CC5010E948313811103C0F801AF
:101C0000C08E0AC08831D9F3FFEFCF1ADF0AB39430
:101C1000E4E0CE16D10471F7F801808D843009F428
:101C200046C096E0EEE0F1E0DE01119601900D92E3
:101C30009A95E1F7F70193819F779C8394819D8327
:101C400095819E83B7016E5F7F4F90E0982F882724
:101C500044E050E0845F9B4F0E945413F801808D54
:101C600090E00496F82EEE24692DC70140960E945C
:101C7000CA12682DC70141960E94CA12F801808DD0
:101C800090E0982F882746E050E0BE016F5F7F4FBD
:101C90008A5F9B4F0E945413F801128E118E20E828
:101CA000A40162E0808D0E94BC0F81E001C080E051
:101CB00026960FB6F894DEBF0FBECDBFDF91CF9151
:101CC0001F910F91FF90EF90DF90CF90BF90AF905A
:101CD0009F908F900895CF93DF93EC011B821A821F
:101CE00048EE53E060E070E04C835D836E837F8359
:101CF00089EB92E099838883CE010E960E94741B33
:101D000084E0888FDF91CF910895CF92DF92EF9298
:101D1000FF920F931F93CF93DF93CDB7DEB7AF97AB
:101D20000FB6F894DEBF0FBECDBF7C018B016A01F8
:101D3000CE0101960E94741BCE0109960E946B0E83
:101D4000CE018A960E94741B67E775E0CE018496E7
:101D50000E94870ABE016C5D7F4FCE0101960E94F2
:101D6000AC06AE01465D5F4FB801CE0101960E9400
:101D70000B0981309105C1F4D701ED91FC910088E8
:101D8000F189E02D8AEA94E09DA38CA30CA51DA502
:101D90002EA53FA50EA31FA328A739A7A601BE0104
:101DA0006C5D7F4FC7010995AF960FB6F894DEBF03
:101DB0000FBECDBFDF91CF911F910F91FF90EF909C
:101DC000DF90CF9008950F9300E020E040E060E0C6
:101DD00081EA95E00E947E1B0F910895CF92DF92D9
:101DE000EF92FF920F9330E0C12CF2E1DF2EFAE781
:101DF000EF2EF12C4C155D056E057F0540F4F69431
:101E0000E794D794C7943F5F3630A1F737E041E0BD
:101E10004327211102C050E701C050E5242F30E0D4
:101E20003595279523700C70202B252BFC012083E2
:101E3000417041830F91FF90EF90DF90CF90089514
:101E400090E0982F882744E050E0845F9B4F0C94EB
:101E50005413282F30E02C5F3F4F922F8827860F96
:101E6000971F0C94831362E070E00C94290FFB0120
:101E7000282F30E02C5F3F4F922F8827642F8E0F42
:101E80009F1F0C94CA12CF93DF93C82FD62F472FD2
:101E900064E070E00E94370F4D2F65E070E08C2FFA
:101EA000DF91CF910C94370F462F62E070E00C94D5
:101EB000370FCF93DF93C82FD62F472F60E170E005
:101EC0000E94370F4D2F61E170E08C2FDF91CF9191
:101ED0000C94370F0F931F93CF93DF9300D01F9273
:101EE000CDB7DEB7182F00E021E040E059E06DE308
:101EF00070E0CE0101960E94EE0E89819A810E94C7
:101F00009E0963E070E0812F0E94290F8B830E945D
:101F1000B8098B810F900F900F90DF91CF911F9197
:101F20000F9108950F931F93CF93DF9300D0CDB7F8
:101F3000DEB7182F00E021E040E059E06DE370E0EB
:101F4000CE0101960E94EE0E89819A810E949E091F
:101F500040E150E0612F89EA95E00E944D156FEF56
:101F6000812F0E94540F0E94B8090F900F90DF91AB
:101F7000CF911F910F910895CF92DF92EF92FF9230
:101F80000F931F93CF93DF9300D0CDB7DEB7182FF9
:101F9000D62E7A01C22E8FEF860F8530A8F5812FBD
:101FA0000E94920F00E021E040E059E06DE370E014
:101FB000CE0101960E94EE0E89819A810E949E09AF
:101FC0004D2D4C2960E070E0812F0E94370FE11405
:101FD000F10411F0B7010AC06091A7057091A8053E
:101FE0006F5F7F4F7093A8056093A705812F0E94B4
:101FF000430F41E050E0612F89EA95E00E944D15C2
:102000000E94B80981E001C080E00F900F90DF913D
:10201000CF911F910F91FF90EF90DF90CF90089597
:10202000CF92DF92EF92FF920F931F93CF93DF93A4
:1020300000D0CDB7DEB7182F7B016A01FB0180818C
:102040008F3F51F481818F3F99F482818F3F81F4DA
:1020500083818F3F69F430C081110AC0FB01818107
:10206000811106C08281811103C08381882321F1FF
:10207000C114D10409F100E021E040E059E06DE332
:1020800070E0CE0101960E94EE0E89819A810E9435
:102090009E09B701812F0E94200FB601812F0E9457
:1020A000590F44E050E0612F89EA95E00E944D15F8
:1020B0000E94B80981E001C080E00F900F90DF918D
:1020C000CF911F910F91FF90EF90DF90CF900895E7
:1020D0000F931F93CF93DF9300D0CDB7DEB7182FA8
:1020E00000E021E040E059E06DE370E0CE010196B0
:1020F0000E94EE0E89819A810E949E0948E050E07C
:10210000612F89EA95E00E944D150E94B8090F9051
:102110000F90DF91CF911F910F910895BF92CF92B1
:10212000DF92EF92FF920F931F93CF93DF9300D034
:102130001F92CDB7DEB7B82E6B017A01413088E02F
:10214000580718F0E12C98E0F92E00E021E040E07B
:1021500059E06DE370E0CE0101960E94EE0E898198
:102160009A810E949E096B2D89EA95E00E94BB131B
:102170008C0163E070E08B2D0E94290F8B830E94FD
:10218000B8098B81873111F08C3131F40E94A0178E
:102190000E151F05D0F202C0E12CF12C00E021E069
:1021A00040E059E06DE370E0CE0101960E94EE0E32
:1021B00089819A810E949E099701A6016B2D89EA67
:1021C00095E00E947A1440E250E06B2D89EA95E098
:1021D0000E944D158B2D0E94330F84FD22C063E0B9
:1021E00070E08B2D0E94290F811108C00E94B80950
:1021F0008B2D0E94920F80E090E01AC00E94B809D7
:102200000E94A01700E021E040E059E06DE370E09B
:10221000CE0101960E94EE0E89819A810E949E094C
:10222000D9CF60E18B2D0E94540F0E94B809C701DD
:102230000F900F900F90DF91CF911F910F91FF9012
:10224000EF90DF90CF90BF900895AF92BF92CF9262
:10225000DF92EF92FF920F931F93CF93DF9300D003
:10226000CDB7DEB7182F5B016A0100E021E040E046
:1022700059E06DE370E0CE0101960E94EE0E898177
:102280009A810E949E09612F89EA95E00E94EF13CE
:102290007C010097A1F463E070E0812F0E94290F78
:1022A000843119F1882309F121E030E08C3111F4F7
:1022B00020E030E0EE24FF24E21AF30A16C0C8162C
:1022C000D9060CF476011E141F047CF400E097017B
:1022D000A501612F89EA95E00E94FD1440E450E0D9
:1022E000612F89EA95E00E944D150E94B809C70147
:1022F0000F900F90DF91CF911F910F91FF90EF9072
:10230000DF90CF90BF90AF9008950F931F93CF931E
:10231000DF9300D000D0CDB7DEB7182F00E021E06A
:1023200040E059E06DE370E0CE0101960E94EE0EB0
:1023300089819A810E949E09612F89EA95E00E9415
:10234000EF138B839C830E94B8098B819C810F9033
:102350000F900F900F90DF91CF911F910F910895E3
:10236000EF92FF920F931F93CF93DF9300D0CDB7DF
:10237000DEB7182F7B0100E021E040E059E06DE37B
:1023800070E0CE0101960E94EE0E89819A810E9432
:102390009E0901E021E030E0A701612F89EA95E084
:1023A0000E94FD140E94B80981E090E00F900F9008
:1023B000DF91CF911F910F91FF90EF9008950895B5
:1023C0009F92AF92BF92CF92DF92EF92FF920F93C4
:1023D0001F93CF93DF9300D0CDB7DEB7982E6B015C
:1023E0005A01790100E021E040E059E06DE370E03E
:1023F000CE0101960E94EE0E89819A810E949E096B
:10240000692D89EA95E00E94BB138E159F0530F473
:10241000692D89EA95E00E94BB137C018701950133
:10242000A601692D89EA95E00E940B140E94B80963
:10243000C7010F900F90DF91CF911F910F91FF90E7
:10244000EF90DF90CF90BF90AF909F900895CF9284
:10245000DF92EF92FF920F931F93CF93DF9300D001
:10246000CDB7DEB7182F7B016A01FB018081811196
:1024700009C08181811106C08281811103C08381DD
:102480008823F1F0C114D104D9F000E021E040E04C
:1024900059E06DE370E0CE0101960E94EE0E898155
:1024A0009A810E949E09B701812F0E94200FB601D8
:1024B000812F0E94590F0E94B80981E090E002C06C
:1024C00080E090E00F900F90DF91CF911F910F91DE
:1024D000FF90EF90DF90CF9008950F931F93CF93CD
:1024E000DF9300D0CDB7DEB7182F00E021E040E049
:1024F00059E06DE370E0CE0101960E94EE0E8981F5
:102500009A810E949E0940E250E0612F89EA95E09D
:102510000E944D15812F0E94330F84FD21C0812F11
:102520000E94330F83FF09C068E1812F0E94540F7E
:102530000E94B80980E090E01BC00E94B8090E9488
:10254000A01700E021E040E059E06DE370E0CE012B
:1025500001960E94EE0E89819A810E949E09DACF2F
:1025600060E1812F0E94540F0E94B80981E090E041
:102570000F900F90DF91CF911F910F9108958EBD15
:1025800000000DB407FEFDCF8EB508952A9808957A
:102590002A9A08951F93CF93DF9300D0CDB7DEB76B
:1025A000182F6A8399830E94C61280EF0E94BF127F
:1025B0009981892F0E94BF12812F0E94BF126A81C8
:1025C000862F0E94BF120E94C81281E00F900F90C8
:1025D000DF91CF911F910895CF93DF93EC016CE2CF
:1025E00071E080E090E00E941A180E946C01229A2B
:1025F00080910B05882399F09FB7F89480910B0583
:10260000813059F48DB3809309052DB380910A056B
:10261000809582238DBB9FBF02C09093090580E502
:102620008CBD1DBC60E880E090E00E94CA1265E5A8
:102630008BE190E00E94CA1265E58AE190E00E9479
:10264000CA1280910B05882361F09FB7F8942091FE
:102650000B0580910905213019F48DBB9FBF01C086
:102660008FBF80E090E49983888380E090E699872B
:10267000888780E098E49B838A8380E098E69B8744
:102680008A8780E090E59D838C8380E090E79D873A
:102690008C8780E098E59F838E8380E098E79F8712
:1026A0008E87DF91CF910895CF92DF92EF92FF92C4
:1026B0000F931F93CF93DF93EC017A018B016C0191
:1026C000C40ED51ECC15DD05A1F00E94C61280EF08
:1026D0000E94BF128D2F0E94BF128C2F0E94BF122A
:1026E0002196F80181918F010E94BF120E94C812A9
:1026F000E9CFC701DF91CF911F910F91FF90EF902C
:10270000DF90CF9008951F93CF93DF931F92CDB7A3
:10271000DEB7182F99830E94C6128FE00E94BF1265
:102720009981892F0E94BF12812F0E94BF1280E0E1
:102730000E94BF1289830E94C81289810F90DF9185
:10274000CF911F9108951F93CF93DF93182F60E2CD
:1027500070E00E94290FC82FD0E061E270E0812F65
:102760000E94290FDC2FCC279E01282BC901DF9165
:10277000CF911F910895FF920F931F93CF93DF93F3
:10278000F62EC0E0D0E08F2D0E94A3138C0100979D
:1027900021F08F2D0E94A313EC01C017D10799F7E8
:1027A000CE01DF91CF911F910F91FF9008951F935C
:1027B000CF93DF93182F66E270E00E94290FC82F95
:1027C000D0E067E270E0812F0E94290FDC2FCC2738
:1027D0009E01282BC901DF91CF911F910895FF928F
:1027E0000F931F93CF93DF93F62EC0E0D0E08F2D91
:1027F0000E94D7138C01009721F08F2D0E94D713D0
:10280000EC01C017D10799F7CE01DF91CF911F914D
:102810000F91FF9008956F927F929F92AF92BF9217
:10282000CF92DF92EF92FF920F931F93CF93DF939C
:102830001F92CDB7DEB7D82E962E3A01590164E229
:1028400070E0892D99830E94290FE82EF12C65E212
:1028500070E0892D0E94290FFE2CEE24E82AE60C58
:10286000F71C970137706D2C9981792E690C711CBA
:10287000690C711CD301ED91FC91E20FF31FC901AA
:10288000800F911F81309840A0F0C12C48E0D42ED9
:10289000C21AD30AA601B501CF010E945413A801A0
:1028A0004C195D09B5016C0D7D1DF301808191818D
:1028B00003C0A801B501CF010E945413E00EF11E20
:1028C0004F2D64E270E0892D0E94370F4E2D65E296
:1028D00070E0892D0F90DF91CF911F910F91FF90A4
:1028E000EF90DF90CF90BF90AF909F907F906F90D0
:1028F0000C94370F0F931F9389019A0140E050E029
:102900000E940B141F910F910895CF92DF92EF92C6
:10291000FF920F931F93CF93DF93EC017A018B010A
:102920006C01C40ED51ECC15DD05A9F00E94C6129F
:102930008FE00E94BF128D2F0E94BF128C2F0E9429
:10294000BF12219680E00E94BF12F80181938F018F
:102950000E94C812E8CFC701DF91CF911F910F915C
:10296000FF90EF90DF90CF900895AF92BF92CF92FB
:10297000DF92EF92FF920F931F93CF93DF9300D0DC
:10298000CDB7DEB75A8349835901E981FA81F770DF
:102990007C01E60EF11CE60EF11CD70118968D9114
:1029A0009C9119978E0F9F1F98012E0F3F1F21306A
:1029B000384098F0C12C68E0D62ECE1ADF0AA60166
:1029C000B5010E948514A8014C195D09B5016C0D73
:1029D0007D1DF7018085918502C0A801B5010F908A
:1029E0000F90DF91CF911F910F91FF90EF90DF90AB
:1029F000CF90BF90AF900C9485148F929F92AF921E
:102A0000BF92CF92DF92EF92FF920F931F93CF93DB
:102A1000DF936C01962E5A017901802E68E270E0F6
:102A2000892D0E94290FC82FD0E069E270E0892D1E
:102A30000E94290FDC2FCC27C82B87019501AE01FE
:102A4000692DC6010E94B51481101AC0CE0DDF1D7C
:102A50004D2F68E270E0892D0E94370F4C2F69E2FC
:102A600070E0892DDF91CF911F910F91FF90EF9032
:102A7000DF90CF90BF90AF909F908F900C94370FC6
:102A8000DF91CF911F910F91FF90EF90DF90CF904A
:102A9000BF90AF909F908F900895CF93C62F61E025
:102AA00070E08C2F0E94370F61E070E08C2F0E9445
:102AB000290F8111F9CFCF9108950F931F93CF93D1
:102AC000DF93EC018B010E94A30B1E870D8780E52D
:102AD00090E0988B8F871A8A198A8BED92E098A7DD
:102AE0008FA3DF91CF911F910F910895EF92FF92E5
:102AF0000F931F9310EAE12E1FE0F12E00E010E08B
:102B000020E63AEE40E050E087E795E00E94DE09DB
:102B10001F910F91FF90EF900895CF93DF9300D016
:102B200000D000D0CDB7DEB726E0E4E1F1E0DE0171
:102B3000119601900D922A95E1F7BE016F5F7F4FCC
:102B40000E947615892B41F46DEF72E088EC95E0D8
:102B50000E942F1C80E007C068EE73E080E090E0E8
:102B60000E941A1881E026960FB6F894DEBF0FBEB9
:102B7000CDBFDF91CF9108950F931F93CF93DF9334
:102B80008C01EB0188EC95E00E94101CBE01C8018D
:102B9000DF91CF911F910F910C94101CFC0170A735
:102BA00067A308950F9300E020E040E060E089EB28
:102BB00095E00E947E1B0F9108956F927F928F92F5
:102BC0009F92AF92BF92CF92DF92EF92FF920F93BC
:102BD0001F93CF93DF9300D000D0CDB7DEB77C0139
:102BE0006B016115710519F465E273E002C064E4DC
:102BF00073E088EC95E00E94101C67E673E088ECB7
:102C000095E00E94101CA12CB12C00E010E0712C6A
:102C1000812C66246394C7010E94540C882309F414
:102C20005BC066E271E088EC95E00E94101CC70171
:102C30000E94F70A892B79F369E773E088EC95E045
:102C40000E94101CC7010E94000B982E682F88EC70
:102C500095E00E94121C80E29816A1F1772061F0A5
:102C6000033011054CF4E1E0F0E0EC0FFD1FE00F44
:102C7000F11F90820F5F1F4F0330110531F41C824A
:102C8000CE0101960E94DC205C01882069F004C01E
:102C90008820F1F077247394C114D10451F0692D88
:102CA000C6010E94131E05C08AE0981205C0862C3A
:102CB000B0CF88248394AFCF8DE0981609F4ABCFC2
:102CC000612CA9CF033011051CF377247394D4CF62
:102CD000612C772473949FCF6BE773E088EC95E0C9
:102CE0000E94101CC5010F900F900F900F90DF9164
:102CF000CF911F910F91FF90EF90DF90CF90BF90F9
:102D0000AF909F908F907F906F9008956F927F9279
:102D10008F929F92AF92BF92CF92DF92EF92FF92EB
:102D20000F931F93CF93DF93CDB7DEB76E970FB698
:102D3000F894DEBF0FBECDBF7C014B015A01690183
:102D400067E973E088EC95E00E94101CF701478565
:102D5000508965857685C7010E94450B3C01009727
:102D600009F4C6C066EA73E088EC95E00E94101C86
:102D700067EB73E088EC95E00E94101CB401C7017A
:102D80000E94BC156BE074E0C7010E94BC15B50140
:102D9000C7010E94BC1562EC73E0C7010E94BC151C
:102DA0004701A12CB12C82E0880E911CF70181898A
:102DB0009289A816B9067CF4F40161897289C70169
:102DC0000E94BC156BEC73E0C7010E94BC15FFEFBD
:102DD000AF1ABF0AE8CF6EEC73E0C7010E94BC15C2
:102DE000F70165857685C7010E94BC156BEC73E021
:102DF000C7010E94BC1565ED73E0C7010E94BC15B8
:102E0000C114D10471F1F60101900020E9F7319766
:102E1000EC19FD09FF93EF9389EE93E09F938F9355
:102E2000CE0101965C01BF928F930E941F21B501D4
:102E3000C7010E94BC156EEF73E0C7010E94BC156C
:102E4000F70167A170A5C7010E94BC156BEC73E088
:102E5000C7010E94BC150F900F900F900F900F901C
:102E60000F906BEC73E0C7010E94BC15C114D10434
:102E700071F0B601C7010E94BC156BEC73E0C7018D
:102E80000E94BC156BEC73E0C7010E94BC1568EE94
:102E900073E080E090E00E941A186DE074E088EC26
:102EA00095E00E94101CB801C7010E94DD158C013D
:102EB00066E274E088EC95E00E94101C61E474E026
:102EC00088EC95E00E94101CF701128A118AC70154
:102ED0000E941A0C62E370E080E090E00E941A18F1
:102EE00064E574E088EC95E00E94101C380106C08F
:102EF0006AE674E088EC95E00E94101CC3016E96AF
:102F00000FB6F894DEBF0FBECDBFDF91CF911F91FA
:102F10000F91FF90EF90DF90CF90BF90AF909F9078
:102F20008F907F906F9008950F931F9389019A015E
:102F3000AB0166E874E00E9486161F910F91089518
:102F400008951F920F920FB60F9211242F933F9363
:102F50008F939F93AF93BF938091C0059091C105CC
:102F6000A091C205B091C3053091BF0523E0230FA6
:102F70002D3720F40196A11DB11D05C026E8230FB1
:102F80000296A11DB11D2093BF058093C0059093AB
:102F9000C105A093C205B093C3058091C40590916B
:102FA000C505A091C605B091C7050196A11DB11D2B
:102FB0008093C4059093C505A093C605B093C7053B
:102FC000BF91AF919F918F913F912F910F900FBE25
:102FD0000F901F9018952FB7F8946091C0057091CD
:102FE000C1058091C2059091C3052FBF08953FB7D9
:102FF000F8948091C4059091C505A091C605B09143
:10300000C70526B5A89B05C02F3F19F00196A11D45
:10301000B11D3FBF6627782F892F9A2F620F711D30
:10302000811D911D42E0660F771F881F991F4A95E9
:10303000D1F708958F929F92AF92BF92CF92DF9275
:10304000EF92FF926B017C010E94F7174B015C012C
:10305000C114D104E104F104F1F00E94A0170E9410
:10306000F717681979098A099B09683E7340810539
:10307000910570F321E0C21AD108E108F10888EE49
:10308000880E83E0981EA11CB11CC114D104E10478
:10309000F10429F7DDCFFF90EF90DF90CF90BF9044
:1030A000AF909F908F900895789484B5826084BD8E
:1030B00084B5816084BD85B5826085BD85B581603C
:1030C00085BDEEE6F0E0808181608083E1E8F0E09C
:1030D0001082808182608083808181608083E0E8CB
:1030E000F0E0808181608083E1EBF0E080818460AA
:1030F0008083E0EBF0E0808181608083EAE7F0E0AC
:10310000808184608083808182608083808181600F
:1031100080838081806880831092C100089583300D
:1031200081F028F4813099F08230A1F00895873041
:10313000A9F08830B9F08430D1F4809180008F7D7F
:1031400003C0809180008F7780938000089584B5BC
:103150008F7702C084B58F7D84BD08958091B000C3
:103160008F7703C08091B0008F7D8093B000089569
:10317000CF93DF9390E0FC01E458FF4F2491FC01D2
:10318000E057FF4F8491882349F190E0880F991F01
:10319000FC01E854FF4FA591B49182559F4FFC016B
:1031A000C591D4919FB7611108C0F8948C91209576
:1031B00082238C93888182230AC0623051F4F89470
:1031C0008C91322F309583238C938881822B888336
:1031D00004C0F8948C91822B8C939FBFDF91CF9188
:1031E00008950F931F93CF93DF931F92CDB7DEB750
:1031F000282F30E0F901E859FF4F8491F901E45894
:10320000FF4F1491F901E057FF4F04910023C9F0DB
:10321000882321F069830E948F186981E02FF0E0F4
:10322000EE0FFF1FE255FF4FA591B4919FB7F894A1
:103230008C91611103C01095812301C0812B8C9367
:103240009FBF0F90DF91CF911F910F910895CF9362
:10325000DF93282F30E0F901E859FF4F8491F901FD
:10326000E458FF4FD491F901E057FF4FC491CC23AC
:1032700091F081110E948F18EC2FF0E0EE0FFF1FEC
:10328000EC55FF4FA591B4912C912D2381E090E056
:1032900021F480E002C080E090E0DF91CF910895BA
:1032A000FC01818D228D90E0805C9F4F821B9109F3
:1032B0008F7399270895FC01918D828D981731F0B5
:1032C000828DE80FF11D858D90E008958FEF9FEFBF
:1032D0000895FC01918D828D981761F0828DDF0138
:1032E000A80FB11D5D968C91928D9F5F9F73928FF9
:1032F00090E008958FEF9FEF08958DEE9AE1892B6E
:1033000049F080E090E0892B29F00E94ED1A8111AC
:103310000C9400000895FC01848DDF01A80FB11DFD
:10332000A35ABF4F2C91848D90E001968F739927FB
:10333000848FA689B7892C93A089B1898C918064E8
:103340008C93938D848D981306C00288F389E02DA9
:1033500080818F7D80830895CF93DF93EC01888DEA
:103360008823C9F0EA89FB89808185FD05C0A88989
:10337000B9898C9186FD0FC00FB607FCF5CF80810F
:1033800085FFF2CFA889B9898C9185FFEDCFCE0159
:103390000E948B19E7CFDF91CF910895CF92DF92F2
:1033A000FF920F931F93CF93DF931F92CDB7DEB79A
:1033B0006C0181E0D60158968C9358975B969C914E
:1033C0005B975C968C915C97981307C05096ED9133
:1033D000FC915197808185FD2EC0F601038D10E090
:1033E0000F5F1F4F0F731127F02EF601848DF81217
:1033F00011C00FB607FCF9CFD6015096ED91FC91A4
:103400005197808185FFF1CFC60169830E948B1996
:103410006981EBCF838DE80FF11DE35AFF4F608385
:10342000D6015B960C935B975296ED91FC91539766
:10343000808180620CC0D6015696ED91FC91579721
:1034400060835096ED91FC915197808180648083D8
:1034500081E090E00F90DF91CF911F910F91FF904D
:10346000DF90CF900895BF92CF92DF92EF92FF92BC
:10347000CF93DF93EC016A017B01B22EE889F989D1
:1034800082E08083411581EE580761057105A1F046
:1034900060E079E08DE390E0A70196010E94261E8E
:1034A000215031094109510956954795379527957E
:1034B000211580E1380798F0E889F989108260E8E1
:1034C00074E88EE190E0A70196010E94261E21502B
:1034D0003109410951095695479537952795EC854E
:1034E000FD853083EE85FF852083188EEC89FD896C
:1034F000B082EA89FB89808180618083EA89FB89C7
:10350000808188608083EA89FB89808180688083EC
:10351000EA89FB8980818F7D8083DF91CF91FF9045
:10352000EF90DF90CF90BF9008951F920F920FB64B
:103530000F9211242F938F939F93EF93FF93E0911A
:10354000D805F091D9058081E091DE05F091DF0585
:1035500082FD12C090818091E1058F5F8F73209171
:10356000E205821751F0E091E105F0E0E853FA4FEF
:10357000958F8093E10501C08081FF91EF919F912C
:103580008F912F910F900FBE0F901F9018951F9243
:103590000F920FB60F9211242F933F934F935F9387
:1035A0006F937F938F939F93AF93BF93EF93FF930B
:1035B00088EC95E00E948B19FF91EF91BF91AF913C
:1035C0009F918F917F916F915F914F913F912F913B
:1035D0000F900FBE0F901F90189588EC95E00E94F9
:1035E000501921E0892B09F420E0822F08951092D0
:1035F000CB051092CA0588EE93E0A0E0B0E080937E
:10360000CC059093CD05A093CE05B093CF058AE964
:1036100094E09093C9058093C80585EC90E0909361
:10362000D5058093D40584EC90E09093D7058093E2
:10363000D60580EC90E09093D9058093D80581EC75
:1036400090E09093DB058093DA0582EC90E0909314
:10365000DD058093DC0586EC90E09093DF05809398
:10366000DE051092E1051092E2051092E30510923A
:10367000E4050895AF92BF92CF92DF92EF92FF924E
:103680000F931F93CF93DF936C017B01C0E0D0E0D9
:1036900000E010E0F601EC0FFD1F4AE050E062810F
:1036A000C7010E94FF1C5C016EE2C7010E94121C50
:1036B0008A0D9B1D080F191F2196C330D10551F7A4
:1036C0004AE050E0F6016581C7010E94FF1C800FAF
:1036D000911FDF91CF911F910F91FF90EF90DF909D
:1036E000CF90BF90AF9008952AEA34E0FC01318377
:1036F0002083128213821482158208950F93FC0195
:103700008AEA94E0918380836283438324830583E0
:103710000F9108952AEA34E0FC0131832083FB01F4
:103720004081518162817381FC01428353836483B0
:1037300075830895FB014081518162817381FC0191
:10374000428353836483758308958AEA94E0909357
:1037500066068093650610926706109268061092BE
:10376000690610926A06089508950E9454180E94EE
:10377000B41B0E949600CDE7D9E10E94B3002097C8
:10378000E1F30E947D19F9CFCF92DF92EF92FF9281
:103790000F931F93CF93DF937C016A01EB0100E04D
:1037A00010E00C151D0571F06991D701ED91FC91A8
:1037B0000190F081E02DC7010995892B19F00F5F69
:1037C0001F4FEFCFC801DF91CF911F910F91FF9055
:1037D000EF90DF90CF9008956115710581F0DB01C6
:1037E0000D900020E9F7AD0141505109461B570BE0
:1037F000DC01ED91FC910280F381E02D099480E0E1
:1038000090E00895DC01ED91FC91DB0114964D915F
:103810005C9115976D917C910280F381E02D099464
:103820000C94EC1BDC01ED91FC910190F081E02DFA
:1038300009946BEC73E00C94EC1B0F931F93CF93E4
:10384000DF93EC010E94021C8C01CE010E94191C26
:10385000800F911FDF91CF911F910F9108950F93CA
:103860001F93CF93DF93EC010E94EC1B8C01CE01E0
:103870000E94191C800F911FDF91CF911F910F9112
:1038800008958F929F92AF92BF92DF92EF92FF9234
:103890000F931F93CF93DF93CDB7DEB7A1970FB6EA
:1038A000F894DEBF0FBECDBF7C01F42FD52ECB0127
:1038B00019A2223008F42AE08E010F5D1F4F822EDC
:1038C000912CA12CB12C6F2F7D2DA50194010E946C
:1038D000261EF22FD32ECA01015011096A3014F4AA
:1038E000E0E301C0E7E3E60FD801EC93232B242BA0
:1038F000252B49F7B801C7010E94EC1BA1960FB612
:10390000F894DEBF0FBECDBFDF91CF911F910F9115
:10391000FF90EF90DF90BF90AF909F908F900895B1
:10392000CF92DF92EF92FF920F931F93CF93DF938B
:10393000EC016A017B012115310579F4E881F981F7
:103940000190F081E02D642FDF91CF911F910F91B5
:10395000FF90EF90DF90CF9009942A303105E9F481
:1039600077FF1AC06DE20E94121C8C014427552774
:10397000BA014C195D096E097F092AE0CE010E9447
:10398000411C800F911FDF91CF911F910F91FF90EC
:10399000EF90DF90CF9008952AE0B701A601CE0105
:1039A000DF91CF911F910F91FF90EF90DF90CF901B
:1039B0000C94411C0F931F93CF93DF93EC019A015A
:1039C000AB01662757FD6095762F0E94901C8C01F5
:1039D000CE010E94191C800F911FDF91CF911F9182
:1039E0000F9108952115310541F4DC01ED91FC9111
:1039F0000190F081E02D642F09940C94411C9A01F0
:103A0000462F50E060E070E00C94F21CCF93DF93FF
:103A100000D000D0CDB7DEB79B01AC0161157105B8
:103A20008105910569F069833A834B835C830E9429
:103A3000042029813A814B815C810E94481E03C089
:103A400060E070E0CB010F900F900F900F90DF912E
:103A5000CF910895CF92DF92EF92FF926B017C019C
:103A6000621773078407950764F4CA01B9016C19DA
:103A70007D098E099F090E94061D6C0D7D1D8E1DFE
:103A80009F1DFF90EF90DF90CF90089570E09B0115
:103A9000382BC9010895FC01808191810C94261F67
:103AA000CF93DF93EC0188819981009711F00E94F8
:103AB000261F198218821D821C821B821A82DF91A6
:103AC000CF9108950F931F93CF93DF93EC018B0158
:103AD0006F5F7F4F888199810E941220009731F09B
:103AE000998388831B830A8381E001C080E0DF9192
:103AF000CF911F910F910895CF93DF93EC018881AF
:103B00009981892B29F08A819B818617970760F418
:103B1000CE010E94621D882341F08C819D81892BFA
:103B200019F4E881F981108281E0DF91CF91089545
:103B3000EF92FF920F931F93CF93DF93EC017B01E2
:103B40008A01BA010E947C1D811104C0CE010E942D
:103B5000501D07C01D830C83B701888199810E9485
:103B60001021CE01DF91CF911F910F91FF90EF9027
:103B70000895FC0111821082138212821582148230
:103B80006115710559F0FB0101900020E9F7AF01C3
:103B900041505109461B570B0C94981D0895CF9323
:103BA000DF93EC016115710561F0FB0101900020CC
:103BB000E9F7AF0141505109461B570B0E94981D70
:103BC00002C00E94501DCE01DF91CF910895EF9267
:103BD000FF920F931F93CF93DF93EC017B010C8136
:103BE0001D816115710511F480E016C04115510564
:103BF00091F0040F151FB8010E947C1D8823A1F3CA
:103C0000288139818C819D81B701820F931F0E9489
:103C100010211D830C8381E0DF91CF911F910F91C3
:103C2000FF90EF900895CF93DF9300D0CDB7DEB72C
:103C300069831A8241E050E0BE016F5F7F4F0E94AE
:103C4000E71D0F900F90DF91CF910895A1E21A2EFA
:103C5000AA1BBB1BFD010DC0AA1FBB1FEE1FFF1F30
:103C6000A217B307E407F50720F0A21BB30BE40B80
:103C7000F50B661F771F881F991F1A9469F76095C7
:103C80007095809590959B01AC01BD01CF01089581
:103C9000052E97FB1EF400940E945F1E57FD07D06F
:103CA0000E94261E07FC03D04EF40C945F1E509514
:103CB0004095309521953F4F4F4F5F4F0895909518
:103CC0008095709561957F4F8F4F9F4F089569271D
:103CD0009627692778278727782708950E947F1ECF
:103CE000A59F900DB49F900DA49F800D911D112450
:103CF0000895EE0FFF1F0590F491E02D0994A29F07
:103D0000B001B39FC001A39F700D811D1124911DAF
:103D1000B29F700D811D1124911D0895CF93DF93E3
:103D20008230910510F482E090E0E0916D06F09110
:103D30006E0620E030E0A0E0B0E0309739F140813D
:103D4000518148175907B8F04817590771F4828113
:103D50009381109729F013969C938E9312972CC001
:103D600090936E0680936D0627C02115310531F0C2
:103D70004217530718F0A901DB0101C0EF019A01B6
:103D8000BD01DF010280F381E02DD7CF2115310580
:103D9000F9F0281B390B2430310580F48A819B818E
:103DA0006115710521F0FB019383828304C0909318
:103DB0006E0680936D06FE01329644C0FE01E20F4E
:103DC000F31F8193919322503109398328833AC09C
:103DD00020916B0630916C06232B41F42091020157
:103DE0003091030130936C0620936B062091000103
:103DF000309101012115310541F42DB73EB74091B5
:103E0000040150910501241B350BE0916B06F091E4
:103E10006C06E217F307A0F42E1B3F0B2817390797
:103E200078F0AC014E5F5F4F2417350748F04E0F16
:103E30005F1F50936C0640936B068193919302C071
:103E4000E0E0F0E0CF01DF91CF910895CF93DF93D1
:103E5000009709F487C0FC01329713821282C09147
:103E60006D06D0916E06209781F420813181280F54
:103E7000391F80916B0690916C068217930779F534
:103E8000F0936C06E0936B066DC0DE0120E030E03D
:103E9000AE17BF0750F412964D915C9113979D0198
:103EA0004115510509F1DA01F3CFB383A2834081B3
:103EB0005181840F951F8A179B0771F48D919C91F6
:103EC0001197840F951F02969183808312968D918E
:103ED0009C911397938382832115310529F4F093E4
:103EE0006E06E0936D063EC0D9011396FC93EE93E7
:103EF00012974D915D91A40FB51FEA17FB0779F456
:103F000080819181840F951F0296D90111969C930F
:103F10008E938281938113969C938E931297E0E007
:103F2000F0E08A819B81009719F0FE01EC01F9CF46
:103F3000CE01029628813981820F931F20916B0652
:103F400030916C062817390769F4309729F41092DC
:103F50006E0610926D0602C013821282D0936C0618
:103F6000C0936B06DF91CF9108958F929F92AF928D
:103F7000BF92CF92DF92EF92FF92CF93DF93EC014B
:103F8000688179818A819B8161157105810591051F
:103F900021F464E279ED8BE597E02DE133EF41E028
:103FA00050E00E94481E49015A019B01AC01A7EA5A
:103FB000B1E40E946E1E6B017C01ACEEB4EFA50172
:103FC00094010E94BC23C60ED71EE81EF91EF7FE00
:103FD00006C081E0C81AD108E10880E8F80AC88262
:103FE000D982EA82FB82C701B6019F77DF91CF9128
:103FF000FF90EF90DF90CF90BF90AF909F908F9009
:1040000008950E94B51F089586E091E00E94B51FB3
:1040100008956093060170930701809308019093BF
:1040200009010895A0E0B0E0E8E1F0E20C94C523B6
:10403000EC01CB01209719F40E948E1EB8C0FE013E
:10404000E60FF71F9E0122503109E217F30708F42B
:10405000ACC0D9010D911C91119706171707B8F044
:104060000530110508F49FC0A801445051094617B6
:10407000570708F498C002501109061B170B01934B
:1040800011936D937C93CF010E94261F8CC05B011E
:10409000A01AB10A4E01800E911EA0916D06B0913A
:1040A0006E06612C712C60E070E0109709F449C035
:1040B000A815B905C9F5ED90FC901197670142E08C
:1040C000C40ED11CCA14DB0478F147018A189B087E
:1040D000640142E0C40ED11C1296BC901297139654
:1040E000AC91B5E0CB16D10440F0B282A3839182AB
:1040F0008082D9018D939C9309C00E5F1F4F0E0DD6
:104100001F1DF90111830083EB2DFA2F6115710535
:1041100031F0DB011396FC93EE93129744C0F093B9
:104120006E06E0936D063FC06D917C911197661607
:10413000770608F43B01BD0112960D90BC91A02DAD
:10414000B4CF60916B0670916C0668157905E9F43F
:1041500068167906D0F44091000150910101411593
:10416000510541F44DB75EB76091040170910501AE
:10417000461B570BE417F507C0F4F0936C06E09369
:104180006B06F901918380830EC00E948E1E7C0114
:10419000009759F0A801BE010E940721CE010E949C
:1041A000261FC70104C0CE0102C080E090E0CDB759
:1041B000DEB7EEE00C94E123FC0188279927E89410
:1041C00021912032E9F3293010F02E30C8F32B3240
:1041D00041F02D3239F4689404C00E941721820FF7
:1041E000911D219120532A30C0F31EF490958195A2
:1041F0009F4F0895FB01DC0104C08D91019080194F
:1042000021F441505040C8F7881B990B0895FB01D9
:10421000DC0102C001900D9241505040D8F7089542
:10422000FB01DC0101900D920020E1F708957AE096
:10423000979F902D879F802D910D11240895AEE0BA
:10424000B0E0E5E2F1E20C94CF230D891E8986E00F
:104250008C831A8309838FEF9FE79E838D83AE0142
:10426000475E5F4F6F89788DCE0101960E94412194
:10427000EF81F885E00FF11F10822E96E4E00C9498
:10428000EB23ACE0B0E0E7E4F1E20C94C1237C0165
:104290006B018A01FC0117821682838181FFBDC1F7
:1042A000CE0101964C01F7019381F60193FD8591B2
:1042B00093FF81916F01882309F4ABC1853239F4F2
:1042C00093FD859193FF81916F01853229F4B701A8
:1042D00090E00E942923E7CF512C312C20E020329E
:1042E000A0F48B3269F030F4803259F0833269F4F3
:1042F00020612CC08D3239F0803339F4216026C022
:104300002260246023C0286021C027FD27C030ED33
:10431000380F3A3078F426FF06C0FAE05F9E300D81
:104320001124532E13C08AE0389E300D1124332EF1
:1043300020620CC08E3221F426FD6BC1206406C0C1
:104340008C3611F4206802C0883641F4F60193FDE2
:10435000859193FF81916F018111C1CF982F9F7D2E
:104360009554933028F40C5F1F4FFFE3F9830DC081
:10437000833631F0833771F0833509F05BC022C09A
:10438000F801808189830E5F1F4F44244394512C90
:10439000540115C03801F2E06F0E711CF801A080C5
:1043A000B18026FF03C0652D70E002C06FEF7FEF84
:1043B000C5012C870E941E232C0183012C852F7799
:1043C000222E17C03801F2E06F0E711CF801A08098
:1043D000B18026FF03C0652D70E002C06FEF7FEF54
:1043E000C5012C870E9413232C012C852068222EC6
:1043F000830123FC1BC0832D90E048165906B0F4BE
:10440000B70180E290E00E9429233A94F4CFF501AD
:1044100027FC859127FE81915F01B70190E00E9402
:10442000292331103A94F1E04F1A510841145104F4
:1044300071F7E5C0843611F0893639F5F80127FFA8
:1044400007C060817181828193810C5F1F4F08C01A
:1044500060817181882777FD8095982F0E5F1F4FAF
:104460002F76B22E97FF09C0909580957095619533
:104470007F4F8F4F9F4F2068B22E2AE030E0A4017B
:104480000E945B23A82EA81844C0853729F42F7EEC
:10449000B22E2AE030E025C0F22FF97FBF2E8F36F2
:1044A000C1F018F4883579F0B4C0803719F0883736
:1044B00021F0AFC02F2F2061B22EB4FE0DC08B2D86
:1044C0008460B82E09C024FF0AC09F2F9660B92EC1
:1044D00006C028E030E005C020E130E002C020E165
:1044E00032E0F801B7FE07C060817181828193815B
:1044F0000C5F1F4F06C06081718180E090E00E5F0D
:104500001F4FA4010E945B23A82EA818FB2DFF7744
:10451000BF2EB6FE0BC02B2D2E7FA51450F4B4FE7B
:104520000AC0B2FC08C02B2D2E7E05C07A2C2B2D84
:1045300003C07A2C01C0752C24FF0DC0FE01EA0DCA
:10454000F11D8081803311F4297E09C022FF06C04D
:104550007394739404C0822F867809F0739423FDBA
:1045600013C020FF06C05A2C731418F4530C5718AC
:10457000732C731468F4B70180E290E02C870E94DA
:10458000292373942C85F5CF731410F4371801C0C8
:10459000312C24FF12C0B70180E390E02C870E94E9
:1045A00029232C8522FF17C021FF03C088E590E056
:1045B00002C088E790E0B7010CC0822F867859F0DE
:1045C00021FD02C080E201C08BE227FD8DE2B70130
:1045D00090E00E942923A51438F4B70180E390E00D
:1045E0000E9429235A94F7CFAA94F401EA0DF11DF1
:1045F0008081B70190E00E942923A110F5CF3320DC
:1046000009F451CEB70180E290E00E9429233A9448
:10461000F6CFF7018681978102C08FEF9FEF2C962E
:10462000E2E10C94DD23FC01059061507040011023
:10463000D8F7809590958E0F9F1F0895FC016150CB
:10464000704001900110D8F7809590958E0F9F1FB4
:1046500008950F931F93CF93DF93182F092FEB012A
:104660008B8181FD03C08FEF9FEF20C082FF10C0C0
:104670004E815F812C813D81421753077CF4E88194
:10468000F9819F012F5F3F4F39832883108306C034
:10469000E885F985812F0995892B29F72E813F819E
:1046A0002F5F3F4F3F832E83812F902FDF91CF913C
:1046B0001F910F910895FA01AA27283051F1203156
:1046C00081F1E8946F936E7F6E5F7F4F8F4F9F4FA6
:1046D000AF4FB1E03ED0B4E03CD0670F781F891FE8
:1046E0009A1FA11D680F791F8A1F911DA11D6A0FB6
:1046F000711D811D911DA11D20D009F468943F9169
:104700002AE0269F11243019305D3193DEF6CF0167
:104710000895462F4770405D4193B3E00FD0C9F72D
:10472000F6CF462F4F70405D4A3318F0495D31FD9A
:104730004052419302D0A9F7EACFB4E0A6959795ED
:10474000879577956795BA95C9F7009761057105C3
:1047500008959B01AC010A2E06945795479537950D
:104760002795BA95C9F7620F731F841F951FA01D67
:104770000895B7FF0C946E1E0E946E1E821B930B51
:1047800008952F923F924F925F926F927F928F92F5
:104790009F92AF92BF92CF92DF92EF92FF920F93D0
:1047A0001F93CF93DF93CDB7DEB7CA1BDB0B0FB6DA
:1047B000F894DEBF0FBECDBF09942A883988488897
:1047C0005F846E847D848C849B84AA84B984C8842D
:1047D000DF80EE80FD800C811B81AA81B981CE0F24
:1047E000D11D0FB6F894DEBF0FBECDBFED01089509
:1047F00010E0C6EDD0E004C0FE010E947B1E2296B0
:0A480000C83DD107C9F7F894FFCFB7
:10480A0000006F06800001000000010000C00100E6
:10481A005E000000DEADBEEFFEED537461727420DF
:10482A0073657475702E2E00436C69656E742073FF
:10483A00657475702073756363657366756C6C0057
:10484A004F62737461636C652021004E6F206F6242
:10485A00737461636C65210A000A0A0A53656E64FF
:10486A0020746F207365727665723A200A0061704F
:10487A00706C69636174696F6E2F6A736F6E007B07
:10488A0022497354686572654475636B73223A747E
:10489A007275652C226F776E65724964223A2270AE
:1048AA006C616375746141726475696E6F227D0013
:1048BA002F35333231384644322D443432422D3882
:1048CA004130362D464643452D3545353945344424
:1048DA0031324230302F31424144393930392D4258
:1048EA003039372D343738412D464637342D39394A
:1048FA00343839364131313030302F646174612FA8
:10490A0041726554686572654475636B73007B22F6
:10491A00497354686572654475636B73223A6661BC
:10492A006C73652C226F776E65724964223A227025
:10493A006C616375746141726475696E6F227D0082
:10494A0053746174757320636F64652066726F6D4A
:10495A00207365727665723A2000526573706F6EC5
:10496A00736520626F64792066726F6D2073657259
:10497A007665723A20006170692E6261636B656EBA
:10498A00646C6573732E636F6D0057495A6E657454
:10499A000000000000B40ADD0AF70A000B1E0B41F2
:1049AA000BBD0B450B1A0B1A0C540CCA0AA50AA804
:1049BA000AD20AAA0A00000000AD0CE50CA90CF9FB
:1049CA000C3F0DC30C580DC40CD90C850EE10C8597
:1049DA000D220D8E0C950CA50CDB0D6170706C69A7
:1049EA00636174696F6E2F782D7777772D666F7292
:1049FA006D2D75726C656E636F64656400466169DE
:104A0A006C656420746F20636F6E66696775726582
:104A1A002045746865726E6574207573696E6720C7
:104A2A004448435000485454503A204E554C4C2068
:104A3A00524553504F4E534520504F494E544552BC
:104A4A003A200A00485454503A204E4F4E2D4E55A3
:104A5A004C4C20524553504F4E534520504F494ECF
:104A6A005445523A200A00485454503A2052455369
:104A7A00504F4E53453A200A002C00485454503A9D
:104A8A002072657475726E20726561645265737006
:104A9A006F6E7365330A00485454503A20636F6E40
:104AAA006E6563740A00485454503A20636F6E6E00
:104ABA0065637465640A00524551554553543A205A
:104ACA000A0020485454502F312E310D0A00486FE5
:104ADA0073743A2000436F6E6E656374696F6E3A41
:104AEA0020636C6F73650D0A00436F6E74656E7494
:104AFA002D4C656E6774683A2025640D0A00436F71
:104B0A006E74656E742D547970653A200048545459
:104B1A00503A2063616C6C207265616452657370EF
:104B2A006F6E73650A00485454503A207265747562
:104B3A00726E2072656164526573706F6E73650A76
:104B4A0000485454503A2073746F7020636C69653E
:104B5A006E740A00485454503A20636C69656E7446
:104B6A002073746F707065640A004854545020436F
:104B7A006F6E6E656374696F6E206661696C6564D9
:104B8A000A0047455400504F5354005055540044AE
:104B9A00454C4554450000000000CE19C41B50196D
:104BAA0069195B19AC19000000003A1B6E616E00AE
:084BBA00696E66006F7666006B
:107E0000112484B714BE81FFF0D085E080938100F7
:107E100082E08093C00088E18093C10086E0809377
:107E2000C20080E18093C4008EE0C9D0259A86E02C
:107E300020E33CEF91E0309385002093840096BBD3
:107E4000B09BFECF1D9AA8958150A9F7CC24DD24C4
:107E500088248394B5E0AB2EA1E19A2EF3E0BF2EE7
:107E6000A2D0813461F49FD0082FAFD0023811F036
:107E7000013811F484E001C083E08DD089C08234E0
:107E800011F484E103C0853419F485E0A6D080C0E4
:107E9000853579F488D0E82EFF2485D0082F10E0AE
:107EA000102F00270E291F29000F111F8ED06801E7
:107EB0006FC0863521F484E090D080E0DECF843638
:107EC00009F040C070D06FD0082F6DD080E0C81688
:107ED00080E7D80618F4F601B7BEE895C0E0D1E017
:107EE00062D089930C17E1F7F0E0CF16F0E7DF06D8
:107EF00018F0F601B7BEE89568D007B600FCFDCFD4
:107F0000A601A0E0B1E02C9130E011968C91119780
:107F100090E0982F8827822B932B1296FA010C0160
:107F200087BEE89511244E5F5F4FF1E0A038BF0790
:107F300051F7F601A7BEE89507B600FCFDCF97BE46
:107F4000E89526C08437B1F42ED02DD0F82E2BD052
:107F50003CD0F601EF2C8F010F5F1F4F84911BD097
:107F6000EA94F801C1F70894C11CD11CFA94CF0C13
:107F7000D11C0EC0853739F428D08EE10CD085E9AC
:107F80000AD08FE07ACF813511F488E018D01DD067
:107F900080E101D065CF982F8091C00085FFFCCF94
:107FA0009093C60008958091C00087FFFCCF809118
:107FB000C00084FD01C0A8958091C6000895E0E648
:107FC000F0E098E1908380830895EDDF803219F02E
:107FD00088E0F5DFFFCF84E1DECF1F93182FE3DFCA
:107FE0001150E9F7F2DF1F91089580E0E8DFEE27F6
:047FF000FF270994CA
:027FFE00040479
:0400000300007E007B
:00000001FF